S018000041544D65676131365F555341525430322E7372656346
S11300000C942A000C943F000C943F000C943F0085
S11300100C943F000C943F000C943F000C943F0060
S11300200C943F000C943F000C943F000C943F0050
S11300300C943F000C943F000C943F000C943F0040
S11300400C943F000C943F000C943F000C943F0030
S11300500C943F0011241FBECFE5D4E0DEBFCDBF1A
S113006010E0A0E6B0E0E8EEF0E002C005900D92EA
S1130070A237B107D9F70E9462000C9472000C9465
S113008000008BB182608BB987E689B910BC8AB154
S113009088618AB980B5866880BD8AB18B7F8AB948
S11300A008955D9BFECF8CB90895CF93DF93EC0147
S11300B003C00E945100219688818111FACFDF91FB
S11300C0CF9108950E94410080E690E00E9455007F
S11300D02FEF89E698E1215080409040E1F700C07D
S10B00E00000F2CFF894FFCFF9
S11300E841544D65676131365F55534152540D0A89
S10500F8000002
S9030000FC
